:0C00000012C0FECFFDCFFCCFFBCFFACF2B
:10000C00F9CFF8CFF7CFF6CFF5CFF4CFF3CFF2CFC0
:10001C00F1CFF0CFEFCFEECFEDCFF894EE27ECBBD6
:10002C00E5BFF8E1A4B7A77FA4BFF1BDE1BD8DE0AA
:10003C00A2E0ED938A95E9F780E8A0E6ED938A9526
:10004C00E9F7E0E0E3BBE4BBE5BBEFEDEDBFC0E8F7
:10005C0000C0E0E0E1BBEFEFE7BBE0E8E8BBE8B3F2
:10006C00E13011F4E0E806C0E8B3F0E0DF01E2E0D3
:10007C00F0E02BD0E8BBECE2F1E0FA93EA9302D08B
:10008C00EECFFFCFE991F991309639F080ED97E002
:10009C000197F1F7A8953197C9F70895F195E19576
:1000AC00F04008950024112490E1AA0FBB1F001CFE
:1000BC00111C0E1A1F0A18F40E0E1F1E01C0A1608F
:1000CC009A9599F7FD01D001089504D0EBDF0EF459
:1000DC00E5DF0895E894F7FF02C0E0DF6894B7FF0E
:1000EC0006C0A095B095119600F8039400FA0895F7
:00000001FF
