:080000002AC0FECFFDCFFCCFAA
:10000800CAC1EFC1E9C1F8CFF7CFF6CFF5CFF4CF2A
:10001800C7C1F2CFF1CFF0CFEFCFEECFEDCFF08861
:100028008C88F08888F000000100781E000000002D
:1000380000000000010003002E00010080003000D5
:100048000200910032000800020034000000F89419
:10005800EE27ECBBE5BFF8E1A4B7A77FA4BFF1BDCD
:10006800E1BD8DE0A2E0ED938A95E9F780E8A0E68E
:10007800ED938A95E9F7ECE3F0E085919591009787
:1000880061F0A591B59105901590BF01F00105901B
:100098000D920197E1F7FB01F0CFE0E0E3BBE4BB91
:1000A800E5BBEFEDEDBFC0E800C0789496D062D113
:1000B80088950000FCCFA0E0B0E0E0E0F0E0FFD1E0
:1000C800FFCFE1B3E760E1BBE2B3E760E2BB0895CD
:1000D800889A909A919A8AD10895889A909A8BD101
:1000E80085D1089504D200E8889A91988DE08A9580
:1000F800F1F710E0183008F00DC0E02FAA81EA23CC
:1001080009F402C0909A01C09098069574D178D1EC
:100118001F5FF0CF15D0EED123960895E8D100E007
:100128009198889810E0183008F007C0919A000F4D
:100138006CD10E2B65D11F5FF6CFE02FDED108956D
:100148001A9391988898909A919A5FD11E2F58D1B6
:10015800E12F19910895889A9198E881E03009F47F
:1001680002C0909A01C0909883E08A95F1F743D134
:1001780047D121960895889A9098919A83E08A9514
:10018800F1F7909A8BE08A95F1F708951A9343D185
:10019800A4DFEBE3EA93A6DFC1DF1E2FE1E0EA93D9
:1001A800DADFE9DFE12F18812296089534D1E8815A
:1001B800EA9398DFE0DF2296089583DFEAE0F0E033
:1001C800FA93EA9352D1E0E2EA93E7EEEA93EEDF9C
:1001D8000895EBE2EA93DADF0895EFDFEFEFE7BB8C
:1001E8002AD0E3B7E460E3BFEEB5E460EEBDE9B75B
:1001F800E26EE9BFE0E8E6BFECB5FDB513D117D173
:100208000895552009F404C0E7E0E21915D102C0A9
:10021800E22D12D10CB41DB4E22DA1E8EE0FAE0F01
:100228004AD1E00DF11DF9BDE8BDE7E02E1608F052
:1002380001C02394089506D126D109D1DB01AE1B54
:10024800BF0BA0938100B0938200FCD01AD1FFD0DD
:1002580004D1E0938300F0938400E4D0EBE0F0E075
:1002680017D1BF01DFD0E8ECF0E012D1F6D0E0936F
:100278008500F0938600D6D0ECE0F0E009D1BF010C
:10028800D1D0ECE2F1E004D1E8D0E0938700F0931C
:100298008800E0918700F0918800E0938900F0934E
:1002A8008A00E0918500F0918600E0938B00F0933E
:1002B8008C00E0918300F0918400E0938D00F0932E
:1002C8008E00C0D0E0938F00F09390000895F6015F
:1002D800E819F909E0939100F0939200ACDF7724D4
:1002E8002224DDBCCCBC8CB49DB4ECB5FDB5DF01DB
:1002F800A9D0F695E7959BD00895A8816A160CF0C9
:1003080005C0B0D0A23008F001C001C005C0E0911E
:100318008000EF5FE0938000A881A6150CF005C06F
:10032800A1D0A13008F401C001C005C0E09180004F
:10033800E150E0938000552009F40AC093D0A23020
:1003480008F405C05524E1E0F0E0219608950AC0BC
:1003580089D0A13008F006C0E1E05E2EE1E0F0E0CF
:100368002196089568806501ACB4BDB4E0E0F0E082
:1003780021960895442009F404C0772009F401C0A7
:1003880001C008C0442425DFEA93B7DF309709F499
:1003980001C09DDF0895EA93E1E07E2EE99118956A
:1003A8000A921A92FA926A937A938A939A93AA93E0
:1003B800BA93EA93FA93EFB7EA9323DFE991EFBF91
:1003C800F991E991B991A991999189917991699155
:1003D800F990199009901895EA93E1E04E2EE99169
:1003E8001895EA93E1E03E2EE9911895909883E0FC
:1003F8008A95F1F70895919A8BE08A95F1F7089517
:10040800919883E08A95F1F7089583E08A95F1F74A
:10041800E0B3E17008955CDEEAE3EA9363DEE98124
:10042800EA9360CEA0919100B09192000895EA0FEE
:10043800FB1FFBBDEABDE5CEF0E0EA5DFF4F04908F
:1004480008BA0895E0919100F09192000895BF01D3
:10045800E9DFE2E3F0E01CD00895DF01FB01EA1BCD
:10046800FB0B0895A09180000895E991F9913096C9
:1004780039F080ED97E00197F1F7A8953197C9F722
:100488000895F695E795F695E795F695E795089515
:100498000024112490E1AA0FBB1F001C111C0E1A86
:1004A8001F0A18F40E0E1F1E01C0A1609A9599F735
:1004B800FD01D0010895ED91FC91AA95089507D00A
:1004C8001196EF93EF2F03D0EF9111970895E19BC9
:1004D80002C0A895FCCF9FB7F894AEBBE09A8DB345
:1004E800E81719F0EDBBE29AE19A9FBF08951A93B5
:1004F8000A93089519810881089509911991089519
:00000001FF
